{
  "contractName": "Ownership",
  "abi": [
    {
      "anonymous": false,
      "inputs": [
        {
          "indexed": true,
          "internalType": "address",
          "name": "owner",
          "type": "address"
        },
        {
          "indexed": true,
          "internalType": "string",
          "name": "fileHash",
          "type": "string"
        },
        {
          "indexed": true,
          "internalType": "address",
          "name": "user",
          "type": "address"
        }
      ],
      "name": "AccessGranted",
      "type": "event"
    },
    {
      "anonymous": false,
      "inputs": [
        {
          "indexed": true,
          "internalType": "address",
          "name": "owner",
          "type": "address"
        },
        {
          "indexed": true,
          "internalType": "string",
          "name": "fileHash",
          "type": "string"
        },
        {
          "indexed": true,
          "internalType": "address",
          "name": "user",
          "type": "address"
        }
      ],
      "name": "AccessRevoked",
      "type": "event"
    },
    {
      "anonymous": false,
      "inputs": [
        {
          "indexed": true,
          "internalType": "address",
          "name": "owner",
          "type": "address"
        },
        {
          "indexed": true,
          "internalType": "string",
          "name": "fileHash",
          "type": "string"
        },
        {
          "indexed": false,
          "internalType": "string",
          "name": "fileName",
          "type": "string"
        },
        {
          "indexed": false,
          "internalType": "uint256",
          "name": "timestamp",
          "type": "uint256"
        }
      ],
      "name": "FileUploaded",
      "type": "event"
    },
    {
      "inputs": [
        {
          "internalType": "string",
          "name": "_fileName",
          "type": "string"
        },
        {
          "internalType": "string",
          "name": "_fileHash",
          "type": "string"
        }
      ],
      "name": "uploadFile",
      "outputs": [],
      "stateMutability": "nonpayable",
      "type": "function"
    },
    {
      "inputs": [
        {
          "internalType": "string",
          "name": "_fileHash",
          "type": "string"
        },
        {
          "internalType": "address",
          "name": "_user",
          "type": "address"
        }
      ],
      "name": "grantAccess",
      "outputs": [],
      "stateMutability": "nonpayable",
      "type": "function"
    },
    {
      "inputs": [
        {
          "internalType": "string",
          "name": "_fileHash",
          "type": "string"
        },
        {
          "internalType": "address",
          "name": "_user",
          "type": "address"
        }
      ],
      "name": "revokeAccess",
      "outputs": [],
      "stateMutability": "nonpayable",
      "type": "function"
    },
    {
      "inputs": [
        {
          "internalType": "string",
          "name": "_fileHash",
          "type": "string"
        },
        {
          "internalType": "address",
          "name": "_user",
          "type": "address"
        }
      ],
      "name": "hasAccess",
      "outputs": [
        {
          "internalType": "bool",
          "name": "",
          "type": "bool"
        }
      ],
      "stateMutability": "view",
      "type": "function",
      "constant": true
    },
    {
      "inputs": [
        {
          "internalType": "uint256",
          "name": "_index",
          "type": "uint256"
        }
      ],
      "name": "getFile",
      "outputs": [
        {
          "internalType": "string",
          "name": "",
          "type": "string"
        },
        {
          "internalType": "string",
          "name": "",
          "type": "string"
        },
        {
          "internalType": "uint256",
          "name": "",
          "type": "uint256"
        }
      ],
      "stateMutability": "view",
      "type": "function",
      "constant": true
    },
    {
      "inputs": [],
      "name": "getMyFilesCount",
      "outputs": [
        {
          "internalType": "uint256",
          "name": "",
          "type": "uint256"
        }
      ],
      "stateMutability": "view",
      "type": "function",
      "constant": true
    }
  ],
  "bytecode": "0x608060405234801561001057600080fd5b50610c80806100206000396000f3fe608060405234801561001057600080fd5b50600436106100625760003560e01c806313bd20e2146100675780632bfda3131461008f57806352677410146100b1578063996d50bf146100cf578063dfe0b5fe146100e4578063f37c215e146100f7575b600080fd5b61007a6100753660046108af565b61010a565b60405190151581526020015b60405180910390f35b6100a261009d36600461090d565b610185565b60405161008693929190610976565b33600090815260208190526040902054604051908152602001610086565b6100e26100dd3660046109ac565b610347565b005b6100e26100f23660046108af565b6104d2565b6100e26101053660046108af565b6105f8565b60006001600160a01b038216331480156101295750610129338461077c565b156101365750600161017f565b33600090815260016020526040908190209051610154908590610a10565b90815260408051602092819003830190206001600160a01b0385166000908152925290205460ff1690505b92915050565b33600090815260208190526040812054606091829184106101e35760405162461bcd60e51b8152602060048201526013602482015272496e646578206f7574206f6620626f756e647360681b60448201526064015b60405180910390fd5b33600090815260208190526040812080548690811061020457610204610a2c565b906000526020600020906004020190508060000181600101826003015482805461022d90610a42565b80601f016020809104026020016040519081016040528092919081815260200182805461025990610a42565b80156102a65780601f1061027b576101008083540402835291602001916102a6565b820191906000526020600020905b81548152906001019060200180831161028957829003601f168201915b505050505092508180546102b990610a42565b80601f01602080910402602001604051908101604052809291908181526020018280546102e590610a42565b80156103325780601f1061030757610100808354040283529160200191610332565b820191906000526020600020905b81548152906001019060200180831161031557829003601f168201915b50505050509150935093509350509193909250565b600082511161038d5760405162461bcd60e51b8152602060048201526012602482015271119a5b19481b985b59481c995c5d5a5c995960721b60448201526064016101da565b60008151116103de5760405162461bcd60e51b815260206004820152601860248201527f46696c652068617368202843494429207265717569726564000000000000000060448201526064016101da565b3360008181526020818152604080832081516080810183528781528084018790529182019490945242606082015283546001810185559383529120815191926004020190819061042e9082610acb565b50602082015160018201906104439082610acb565b506040828101516002830180546001600160a01b0319166001600160a01b0390921691909117905560609092015160039091015551610483908290610a10565b6040518091039020336001600160a01b03167fbfefa59b16be4b348ad74254e31f16a631ec47799e24b3cba0ba5df3e9c21cab84426040516104c6929190610b8b565b60405180910390a35050565b6001600160a01b0381166105175760405162461bcd60e51b815260206004820152600c60248201526b24b73b30b634b2103ab9b2b960a11b60448201526064016101da565b610521338361077c565b6105615760405162461bcd60e51b81526020600482015260116024820152704e6f74206f776e6572206f662066696c6560781b60448201526064016101da565b33600090815260016020526040808220905161057e908590610a10565b90815260408051602092819003830181206001600160a01b03861660008181529190945291909120805460ff191693151593909317909255906105c2908490610a10565b6040519081900381209033907fa09219d7e8e0f494087bb0762109f3d8fa4bfc090a8a348a142cab14aa73e3f790600090a45050565b6001600160a01b03811661063d5760405162461bcd60e51b815260206004820152600c60248201526b24b73b30b634b2103ab9b2b960a11b60448201526064016101da565b336001600160a01b038216036106955760405162461bcd60e51b815260206004820152601860248201527f4f776e657220616c72656164792068617320616363657373000000000000000060448201526064016101da565b61069f338361077c565b6106df5760405162461bcd60e51b81526020600482015260116024820152704e6f74206f776e6572206f662066696c6560781b60448201526064016101da565b336000908152600160208190526040918290209151909190610702908590610a10565b90815260408051602092819003830181206001600160a01b03861660008181529190945291909120805460ff19169315159390931790925590610746908490610a10565b6040519081900381209033907f1374c56ac5373755358f44713ae3c7f3c5bde84cb5d9bcbddf8c15b647ed340390600090a45050565b6001600160a01b0382166000908152602081905260408120815b81548110156108015783805190602001208282815481106107b9576107b9610a2c565b90600052602060002090600402016001016040516107d79190610bad565b6040518091039020036107ef5760019250505061017f565b806107f981610c23565b915050610796565b506000949350505050565b634e487b7160e01b600052604160045260246000fd5b600082601f83011261083357600080fd5b813567ffffffffffffffff8082111561084e5761084e61080c565b604051601f8301601f19908116603f011681019082821181831017156108765761087661080c565b8160405283815286602085880101111561088f57600080fd5b836020870160208301376000602085830101528094505050505092915050565b600080604083850312156108c257600080fd5b823567ffffffffffffffff8111156108d957600080fd5b6108e585828601610822565b92505060208301356001600160a01b038116811461090257600080fd5b809150509250929050565b60006020828403121561091f57600080fd5b5035919050565b60005b83811015610941578181015183820152602001610929565b50506000910152565b60008151808452610962816020860160208601610926565b601f01601f19169290920160200192915050565b606081526000610989606083018661094a565b828103602084015261099b818661094a565b915050826040830152949350505050565b600080604083850312156109bf57600080fd5b823567ffffffffffffffff808211156109d757600080fd5b6109e386838701610822565b935060208501359150808211156109f957600080fd5b50610a0685828601610822565b9150509250929050565b60008251610a22818460208701610926565b9190910192915050565b634e487b7160e01b600052603260045260246000fd5b600181811c90821680610a5657607f821691505b602082108103610a7657634e487b7160e01b600052602260045260246000fd5b50919050565b601f821115610ac657600081815260208120601f850160051c81016020861015610aa35750805b601f850160051c820191505b81811015610ac257828155600101610aaf565b5050505b505050565b815167ffffffffffffffff811115610ae557610ae561080c565b610af981610af38454610a42565b84610a7c565b602080601f831160018114610b2e5760008415610b165750858301515b600019600386901b1c1916600185901b178555610ac2565b600085815260208120601f198616915b82811015610b5d57888601518255948401946001909101908401610b3e565b5085821015610b7b5787850151600019600388901b60f8161c191681555b5050505050600190811b01905550565b604081526000610b9e604083018561094a565b90508260208301529392505050565b6000808354610bbb81610a42565b60018281168015610bd35760018114610be857610c17565b60ff1984168752821515830287019450610c17565b8760005260208060002060005b85811015610c0e5781548a820152908401908201610bf5565b50505082870194505b50929695505050505050565b600060018201610c4357634e487b7160e01b600052601160045260246000fd5b506001019056fea26469706673582212202e507445ea54d7669118e96a04c2565db2358a2bca0fc65b57555d7fb206076164736f6c63430008150033",
  "immutableReferences": {},
  "source": "// SPDX-License-Identifier: MIT\npragma solidity ^0.8.0;\n\ncontract Ownership {\n    struct File {\n        string fileName;\n        string fileHash; // IPFS CID\n        address owner;\n        uint256 timestamp;\n    }\n\n    mapping(address => File[]) private userFiles;\n    mapping(address => mapping(string => mapping(address => bool))) private accessList;\n\n    event FileUploaded(address indexed owner, string indexed fileHash, string fileName, uint256 timestamp);\n    event AccessGranted(address indexed owner, string indexed fileHash, address indexed user);\n    event AccessRevoked(address indexed owner, string indexed fileHash, address indexed user);\n\n    function uploadFile(string memory _fileName, string memory _fileHash) external {\n        require(bytes(_fileName).length > 0, \"File name required\");\n        require(bytes(_fileHash).length > 0, \"File hash (CID) required\");\n\n        userFiles[msg.sender].push(\n            File({fileName: _fileName, fileHash: _fileHash, owner: msg.sender, timestamp: block.timestamp})\n        );\n\n        emit FileUploaded(msg.sender, _fileHash, _fileName, block.timestamp);\n    }\n\n    function grantAccess(string memory _fileHash, address _user) external {\n        require(_user != address(0), \"Invalid user\");\n        require(_user != msg.sender, \"Owner already has access\");\n        require(_isOwnerOf(msg.sender, _fileHash), \"Not owner of file\");\n\n        accessList[msg.sender][_fileHash][_user] = true;\n        emit AccessGranted(msg.sender, _fileHash, _user);\n    }\n\n    function revokeAccess(string memory _fileHash, address _user) external {\n        require(_user != address(0), \"Invalid user\");\n        require(_isOwnerOf(msg.sender, _fileHash), \"Not owner of file\");\n\n        accessList[msg.sender][_fileHash][_user] = false;\n        emit AccessRevoked(msg.sender, _fileHash, _user);\n    }\n\n    function hasAccess(string memory _fileHash, address _user) public view returns (bool) {\n        if (_user == msg.sender && _isOwnerOf(msg.sender, _fileHash)) {\n            return true;\n        }\n        return accessList[msg.sender][_fileHash][_user];\n    }\n\n    function getFile(uint256 _index) public view returns (string memory, string memory, uint256) {\n        require(_index < userFiles[msg.sender].length, \"Index out of bounds\");\n        File storage f = userFiles[msg.sender][_index];\n        return (f.fileName, f.fileHash, f.timestamp);\n    }\n\n    function getMyFilesCount() public view returns (uint256) {\n        return userFiles[msg.sender].length;\n    }\n\n    function _isOwnerOf(address _owner, string memory _fileHash) internal view returns (bool) {\n        File[] storage files = userFiles[_owner];\n        for (uint256 i = 0; i < files.length; i++) {\n            if (keccak256(bytes(files[i].fileHash)) == keccak256(bytes(_fileHash))) {\n                return true;\n            }\n        }\n        return false;\n    }\n}\n\n",
  "sourcePath": "C:\\Users\\safwan\\OneDrive - Universiti Teknologi MARA\\Desktop\\FYP PROJECT\\RUNNING\\ether-share-hub\\blockchain\\contracts\\Ownership.sol",
  "compiler": {
    "name": "solc",
    "version": "0.8.21+commit.d9974bed.Emscripten.clang"
  },
  "schemaVersion": "3.4.16",
  "updatedAt": "2025-11-04T18:18:01.157Z",
  "networkType": "ethereum",
  "devdoc": {
    "kind": "dev",
    "methods": {},
    "version": 1
  },
  "userdoc": {
    "kind": "user",
    "methods": {},
    "version": 1
  }
}